:020000020000FC
:1000000015C0189518951895189518951895189560
:100010001895189509C01895189518951895474181
:10002000524E5543485900006894189500E00093DB
:1000300060000093610003E007BB00E008BB03E938
:1000400000BF01EE0EBD0DBD02E00ABD0AEE09BD06
:1000500004E003BF00E109BF002711E478940EC05B
:10006000FEF7E89400916100033019F0073009F0C1
:100070001CC000916000039500936000EEE1F0E089
:1000800000916000E00F049000E2001661F000E0D3
:10009000001649F1011A000CEEEEF0E0E00DF01F41
:1000A000A591B49102C0A0E0B0E0A0FBB795A795E0
:1000B000BF77009161001EF00FD0039502C005D0FC
:1000C00000E000936100E894CBCFC09A0F9300B793
:1000D000006100BF0F910895C0980F9300B70F7E85
:1000E00000BF0F910895C098F894F6DFFFCF1D0070
:1000F0005701D7055700010075017701550005002C
:10010000DD1DD7015D01770017007707DD05771D3D
:100110005D00150007007500D501DD015707D71DEB
:02012000770561
:00000001FF
