:020000020000FC
:100000000EC0189518955DC01895189518951895F7
:10001000189518953FC0189518951895189503E0F0
:1000200007BB00E108BB02E00ABD08E609BD0AEE15
:100030000EBD0DBD18E20027E0E6F0E0008331962A
:100040001A95E1F700E509BF00E003BF00E800BF33
:100050000027009362000093640002BF0FBD0FEF02
:1000600008BF00916300002321F406B304FBEEF304
:1000700006C010E01395B9F106B304FBDEF303E804
:1000800000BF01E003BFF8940091620007FBD6F2C5
:100090007894F9CF0F931F9306B304FB002700F960
:1000A000109162001395109362001A9511F0000FE1
:1000B000FCCF10916400102B109364001F910F91DE
:1000C0001895002709BF0FEF00936200E5E6F0E006
:1000D00000916300E00FF11D039500936300009110
:1000E000640000831895F89403E900BF01EE0EBD8B
:1000F0000DBD02E00ABD0AEE09BD04E003BF00E148
:1001000009BF11C008B704FFFDCF00E408BF00918C
:100110006100033019F0073009F01FC00091600042
:10012000039500936000E5E6F0E000916000E00FC9
:1001300009F4F395008000E2001669F000E0001673
:1001400051F111E4011A000CE2EAF1E0E00DF01FB8
:10015000A591B49102C0A0E0B0E0A0FBB795A7952F
:10016000BF77009161001EF00FD0039502C005D04B
:1001700000E000936100E894C5CFC09A0F9300B7E8
:10018000006100BF0F910895C0980F9300B70F7ED4
:1001900000BF0F910895C098F894F6DFE0E0F0E01A
:1001A00009941D005701D70557000100750177011B
:1001B00055000500DD1DD7015D01770017007707A9
:1001C000DD05771D5D00150007007500D501DD0117
:0601D0005707D71D77055B
:00000001FF
